{"abi":[{"type":"function","name":"createTrip","inputs":[{"name":"_usdc","type":"address","internalType":"address"},{"name":"_agent","type":"address","internalType":"address"},{"name":"_spendLimit","type":"uint256","internalType":"uint256"}],"outputs":[{"name":"tripId","type":"uint256","internalType":"uint256"}],"stateMutability":"nonpayable"},{"type":"function","name":"deposit","inputs":[{"name":"_tripId","type":"uint256","internalType":"uint256"},{"name":"_amount","type":"uint256","internalType":"uint256"}],"outputs":[],"stateMutability":"nonpayable"},{"type":"function","name":"deposits","inputs":[{"name":"","type":"uint256","internalType":"uint256"},{"name":"","type":"address","internalType":"address"}],"outputs":[{"name":"","type":"uint256","internalType":"uint256"}],"stateMutability":"view"},{"type":"function","name":"emergencyWithdraw","inputs":[{"name":"_tripId","type":"uint256","internalType":"uint256"}],"outputs":[],"stateMutability":"nonpayable"},{"type":"function","name":"getBalance","inputs":[{"name":"_tripId","type":"uint256","internalType":"uint256"}],"outputs":[{"name":"","type":"uint256","internalType":"uint256"}],"stateMutability":"view"},{"type":"function","name":"getMemberDeposit","inputs":[{"name":"_tripId","type":"uint256","internalType":"uint256"},{"name":"_member","type":"address","internalType":"address"}],"outputs":[{"name":"","type":"uint256","internalType":"uint256"}],"stateMutability":"view"},{"type":"function","name":"getMembers","inputs":[{"name":"_tripId","type":"uint256","internalType":"uint256"}],"outputs":[{"name":"","type":"address[]","internalType":"address[]"}],"stateMutability":"view"},{"type":"function","name":"getSpends","inputs":[{"name":"_tripId","type":"uint256","internalType":"uint256"}],"outputs":[{"name":"","type":"tuple[]","internalType":"struct GroupTreasury.Spend[]","components":[{"name":"recipient","type":"address","internalType":"address"},{"name":"amount","type":"uint256","internalType":"uint256"},{"name":"category","type":"string","internalType":"string"},{"name":"description","type":"string","internalType":"string"},{"name":"timestamp","type":"uint256","internalType":"uint256"}]}],"stateMutability":"view"},{"type":"function","name":"getTrip","inputs":[{"name":"_tripId","type":"uint256","internalType":"uint256"}],"outputs":[{"name":"","type":"tuple","internalType":"struct GroupTreasury.Trip","components":[{"name":"organizer","type":"address","internalType":"address"},{"name":"agent","type":"address","internalType":"address"},{"name":"usdc","type":"address","internalType":"address"},{"name":"spendLimit","type":"uint256","internalType":"uint256"},{"name":"totalDeposited","type":"uint256","internalType":"uint256"},{"name":"totalSpent","type":"uint256","internalType":"uint256"},{"name":"status","type":"uint8","internalType":"enum GroupTreasury.TripStatus"},{"name":"memberCount","type":"uint256","internalType":"uint256"}]}],"stateMutability":"view"},{"type":"function","name":"isMember","inputs":[{"name":"","type":"uint256","internalType":"uint256"},{"name":"","type":"address","internalType":"address"}],"outputs":[{"name":"","type":"bool","internalType":"bool"}],"stateMutability":"view"},{"type":"function","name":"members","inputs":[{"name":"","type":"uint256","internalType":"uint256"},{"name":"","type":"uint256","internalType":"uint256"}],"outputs":[{"name":"","type":"address","internalType":"address"}],"stateMutability":"view"},{"type":"function","name":"nextTripId","inputs":[],"outputs":[{"name":"","type":"uint256","internalType":"uint256"}],"stateMutability":"view"},{"type":"function","name":"settle","inputs":[{"name":"_tripId","type":"uint256","internalType":"uint256"}],"outputs":[],"stateMutability":"nonpayable"},{"type":"function","name":"spend","inputs":[{"name":"_tripId","type":"uint256","internalType":"uint256"},{"name":"_recipient","type":"address","internalType":"address"},{"name":"_amount","type":"uint256","internalType":"uint256"},{"name":"_category","type":"string","internalType":"string"},{"name":"_description","type":"string","internalType":"string"}],"outputs":[],"stateMutability":"nonpayable"},{"type":"function","name":"spends","inputs":[{"name":"","type":"uint256","internalType":"uint256"},{"name":"","type":"uint256","internalType":"uint256"}],"outputs":[{"name":"recipient","type":"address","internalType":"address"},{"name":"amount","type":"uint256","internalType":"uint256"},{"name":"category","type":"string","internalType":"string"},{"name":"description","type":"string","internalType":"string"},{"name":"timestamp","type":"uint256","internalType":"uint256"}],"stateMutability":"view"},{"type":"function","name":"trips","inputs":[{"name":"","type":"uint256","internalType":"uint256"}],"outputs":[{"name":"organizer","type":"address","internalType":"address"},{"name":"agent","type":"address","internalType":"address"},{"name":"usdc","type":"address","internalType":"address"},{"name":"spendLimit","type":"uint256","internalType":"uint256"},{"name":"totalDeposited","type":"uint256","internalType":"uint256"},{"name":"totalSpent","type":"uint256","internalType":"uint256"},{"name":"status","type":"uint8","internalType":"enum GroupTreasury.TripStatus"},{"name":"memberCount","type":"uint256","internalType":"uint256"}],"stateMutability":"view"},{"type":"event","name":"EmergencyWithdraw","inputs":[{"name":"tripId","type":"uint256","indexed":true,"internalType":"uint256"},{"name":"member","type":"address","indexed":true,"internalType":"address"},{"name":"amount","type":"uint256","indexed":false,"internalType":"uint256"}],"anonymous":false},{"type":"event","name":"FundsSpent","inputs":[{"name":"tripId","type":"uint256","indexed":true,"internalType":"uint256"},{"name":"recipient","type":"address","indexed":true,"internalType":"address"},{"name":"amount","type":"uint256","indexed":false,"internalType":"uint256"},{"name":"category","type":"string","indexed":false,"internalType":"string"},{"name":"description","type":"string","indexed":false,"internalType":"string"}],"anonymous":false},{"type":"event","name":"MemberJoined","inputs":[{"name":"tripId","type":"uint256","indexed":true,"internalType":"uint256"},{"name":"member","type":"address","indexed":true,"internalType":"address"},{"name":"amount","type":"uint256","indexed":false,"internalType":"uint256"}],"anonymous":false},{"type":"event","name":"TripCreated","inputs":[{"name":"tripId","type":"uint256","indexed":true,"internalType":"uint256"},{"name":"organizer","type":"address","indexed":true,"internalType":"address"},{"name":"agent","type":"address","indexed":false,"internalType":"address"},{"name":"usdc","type":"address","indexed":false,"internalType":"address"}],"anonymous":false},{"type":"event","name":"TripSettled","inputs":[{"name":"tripId","type":"uint256","indexed":true,"internalType":"uint256"},{"name":"totalSpent","type":"uint256","indexed":false,"internalType":"uint256"},{"name":"totalReturned","type":"uint256","indexed":false,"internalType":"uint256"}],"anonymous":false},{"type":"error","name":"SafeERC20FailedOperation","inputs":[{"name":"token","type":"address","internalType":"address"}]}],"bytecode":{"object":"0x608060405234801561000f575f80fd5b50612dd38061001d5f395ff3fe608060405234801561000f575f80fd5b50600436106100fe575f3560e01c80637da3075f11610095578063c528f5d311610064578063c528f5d31461030c578063e2bbb1581461033c578063f4e8f19414610358578063f6824a7c14610374576100fe565b80637da3075f146102725780638921a346146102a25780638df82800146102c0578063c477ecab146102dc576100fe565b80635312ea8e116100d15780635312ea8e146101c657806353a58de1146101e25780635b12d2fb146102125780637d9e10f514610242576100fe565b8063010117051461010257806301fc20e2146101325780631e010439146101625780633448be6314610192575b5f80fd5b61011c60048036038101906101179190611d4b565b6103ab565b6040516101299190611ed7565b60405180910390f35b61014c60048036038101906101479190611ef1565b610537565b6040516101599190611f3e565b60405180910390f35b61017c60048036038101906101779190611d4b565b61057f565b6040516101899190611f66565b60405180910390f35b6101ac60048036038101906101a79190611ef1565b6105b0565b6040516101bd959493929190612009565b60405180910390f35b6101e060048036038101906101db9190611d4b565b610727565b005b6101fc60048036038101906101f79190612092565b610a6b565b6040516102099190611f66565b60405180910390f35b61022c60048036038101906102279190611d4b565b610a8b565b604051610239919061224d565b60405180910390f35b61025c60048036038101906102579190612092565b610c80565b6040516102699190612287565b60405180910390f35b61028c600480360381019061028791906122a0565b610caa565b6040516102999190611f66565b60405180910390f35b6102aa610ee3565b6040516102b79190611f66565b60405180910390f35b6102da60048036038101906102d59190611d4b565b610ee8565b005b6102f660048036038101906102f19190611d4b565b61122e565b6040516103039190612398565b60405180910390f35b61032660048036038101906103219190612092565b6112ca565b6040516103339190611f66565b60405180910390f35b61035660048036038101906103519190611ef1565b611320565b005b610372600480360381019061036d9190612419565b611656565b005b61038e60048036038101906103899190611d4b565b611a57565b6040516103a29897969594939291906124df565b60405180910390f35b6103b3611c7f565b60015f8381526020019081526020015f20604051806101000160405290815f82015f9054906101000a900473ffffffffffffffffffffffffffffffffffffffff1673ffffffffffffffffffffffffffffffffffffffff1673ffffffffffffffffffffffffffffffffffffffff168152602001600182015f9054906101000a900473ffffffffffffffffffffffffffffffffffffffff1673ffffffffffffffffffffffffffffffffffffffff1673ffffffffffffffffffffffffffffffffffffffff168152602001600282015f9054906101000a900473ffffffffffffffffffffffffffffffffffffffff1673ffffffffffffffffffffffffffffffffffffffff1673ffffffffffffffffffffffffffffffffffffffff168152602001600382015481526020016004820154815260200160058201548152602001600682015f9054906101000a900460ff1660018111156105105761050f611dc4565b5b600181111561052257610521611dc4565b5b81526020016007820154815250509050919050565b6003602052815f5260405f208181548110610550575f80fd5b905f5260205f20015f915091509054906101000a900473ffffffffffffffffffffffffffffffffffffffff1681565b5f8060015f8481526020019081526020015f209050806005015481600401546105a89190612588565b915050919050565b6004602052815f5260405f2081815481106105c9575f80fd5b905f5260205f2090600502015f9150915050805f015f9054906101000a900473ffffffffffffffffffffffffffffffffffffffff1690806001015490806002018054610614906125e8565b80601f0160208091040260200160405190810160405280929190818152602001828054610640906125e8565b801561068b5780601f106106625761010080835404028352916020019161068b565b820191905f5260205f20905b81548152906001019060200180831161066e57829003601f168201915b5050505050908060030180546106a0906125e8565b80601f01602080910402602001604051908101604052809291908181526020018280546106cc906125e8565b80156107175780601f106106ee57610100808354040283529160200191610717565b820191905f5260205f20905b8154815290600101906020018083116106fa57829003601f168201915b5050505050908060040154905085565b5f60015f8381526020019081526020015f2090505f600181111561074e5761074d611dc4565b5b816006015f9054906101000a900460ff16600181111561077157610770611dc4565b5b146107b1576040517f08c379a00000000000000000000000000000000000000000000000000000000081526004016107a890612662565b60405180910390fd5b60055f8381526020019081526020015f205f3373ffffffffffffffffffffffffffffffffffffffff1673ffffffffffffffffffffffffffffffffffffffff1681526020019081526020015f205f9054906101000a900460ff16610849576040517f08c379a0000000000000000000000000000000000000000000000000000000008152600401610840906126ca565b60405180910390fd5b5f8160050154826004015461085e9190612588565b90505f826004015460025f8681526020019081526020015f205f3373ffffffffffffffffffffffffffffffffffffffff1673ffffffffffffffffffffffffffffffffffffffff1681526020019081526020015f2054836108be91906126e8565b6108c89190612756565b90505f811161090c576040517f08c379a0000000000000000000000000000000000000000000000000000000008152600401610903906127d0565b60405180910390fd5b5f60025f8681526020019081526020015f205f3373ffffffffffffffffffffffffffffffffffffffff1673ffffffffffffffffffffffffffffffffffffffff1681526020019081526020015f205490505f60025f8781526020019081526020015f205f3373ffffffffffffffffffffffffffffffffffffffff1673ffffffffffffffffffffffffffffffffffffffff1681526020019081526020015f208190555080846004015f8282546109c09190612588565b92505081905550610a153383866002015f9054906101000a900473ffffffffffffffffffffffffffffffffffffffff1673ffffffffffffffffffffffffffffffffffffffff16611b049092919063ffffffff16565b3373ffffffffffffffffffffffffffffffffffffffff16857f947a9dc0c5e62cc9756634ec0a89afea37eb0305933925040b9bda820044002084604051610a5c9190611f66565b60405180910390a35050505050565b6002602052815f5260405f20602052805f5260405f205f91509150505481565b606060045f8381526020019081526020015f20805480602002602001604051908101604052809291908181526020015f905b82821015610c75578382905f5260205f2090600502016040518060a00160405290815f82015f9054906101000a900473ffffffffffffffffffffffffffffffffffffffff1673ffffffffffffffffffffffffffffffffffffffff1673ffffffffffffffffffffffffffffffffffffffff16815260200160018201548152602001600282018054610b4c906125e8565b80601f0160208091040260200160405190810160405280929190818152602001828054610b78906125e8565b8015610bc35780601f10610b9a57610100808354040283529160200191610bc3565b820191905f5260205f20905b815481529060010190602001808311610ba657829003601f168201915b50505050508152602001600382018054610bdc906125e8565b80601f0160208091040260200160405190810160405280929190818152602001828054610c08906125e8565b8015610c535780601f10610c2a57610100808354040283529160200191610c53565b820191905f5260205f20905b815481529060010190602001808311610c3657829003601f168201915b5050505050815260200160048201548152505081526020019060010190610abd565b505050509050919050565b6005602052815f5260405f20602052805f5260405f205f915091509054906101000a900460ff1681565b5f805f815480929190610cbc906127ee565b9190505590506040518061010001604052803373ffffffffffffffffffffffffffffffffffffffff1681526020018473ffffffffffffffffffffffffffffffffffffffff1681526020018573ffffffffffffffffffffffffffffffffffffffff1681526020018381526020015f81526020015f81526020015f6001811115610d4757610d46611dc4565b5b81526020015f81525060015f8381526020019081526020015f205f820151815f015f6101000a81548173ffffffffffffffffffffffffffffffffffffffff021916908373ffffffffffffffffffffffffffffffffffffffff1602179055506020820151816001015f6101000a81548173ffffffffffffffffffffffffffffffffffffffff021916908373ffffffffffffffffffffffffffffffffffffffff1602179055506040820151816002015f6101000a81548173ffffffffffffffffffffffffffffffffffffffff021916908373ffffffffffffffffffffffffffffffffffffffff160217905550606082015181600301556080820151816004015560a0820151816005015560c0820151816006015f6101000a81548160ff02191690836001811115610e7957610e78611dc4565b5b021790555060e082015181600701559050503373ffffffffffffffffffffffffffffffffffffffff16817f86bd0c0f9ab4b95670ce267950464e9f790fe1d097c4b6d6ffdcf573480b037d8587604051610ed4929190612835565b60405180910390a39392505050565b5f5481565b5f60015f8381526020019081526020015f2090505f6001811115610f0f57610f0e611dc4565b5b816006015f9054906101000a900460ff166001811115610f3257610f31611dc4565b5b14610f72576040517f08c379a0000000000000000000000000000000000000000000000000000000008152600401610f6990612662565b60405180910390fd5b805f015f9054906101000a900473ffffffffffffffffffffffffffffffffffffffff1673ffffffffffffffffffffffffffffffffffffffff163373ffffffffffffffffffffffffffffffffffffffff161480611023575060055f8381526020019081526020015f205f3373ffffffffffffffffffffffffffffffffffffffff1673ffffffffffffffffffffffffffffffffffffffff1681526020019081526020015f205f9054906101000a900460ff165b611062576040517f08c379a0000000000000000000000000000000000000000000000000000000008152600401611059906126ca565b60405180910390fd5b6001816006015f6101000a81548160ff0219169083600181111561108957611088611dc4565b5b02179055505f816005015482600401546110a39190612588565b90505f8111156111eb575f5b60035f8581526020019081526020015f20805490508110156111e9575f60035f8681526020019081526020015f2082815481106110ef576110ee61285c565b5b905f5260205f20015f9054906101000a900473ffffffffffffffffffffffffffffffffffffffff1690505f846004015460025f8881526020019081526020015f205f8473ffffffffffffffffffffffffffffffffffffffff1673ffffffffffffffffffffffffffffffffffffffff1681526020019081526020015f20548561117791906126e8565b6111819190612756565b90505f8111156111da576111d98282876002015f9054906101000a900473ffffffffffffffffffffffffffffffffffffffff1673ffffffffffffffffffffffffffffffffffffffff16611b049092919063ffffffff16565b5b505080806001019150506110af565b505b827f2b4e6e807d883fa1eebb7fa4e3800f3bdad83741e4ede209a0d7bdfed989a557836005015483604051611221929190612889565b60405180910390a2505050565b606060035f8381526020019081526020015f208054806020026020016040519081016040528092919081815260200182805480156112be57602002820191905f5260205f20905b815f9054906101000a900473ffffffffffffffffffffffffffffffffffffffff1673ffffffffffffffffffffffffffffffffffffffff1681526020019060010190808311611275575b50505050509050919050565b5f60025f8481526020019081526020015f205f8373ffffffffffffffffffffffffffffffffffffffff1673ffffffffffffffffffffffffffffffffffffffff1681526020019081526020015f2054905092915050565b5f60015f8481526020019081526020015f2090505f600181111561134757611346611dc4565b5b816006015f9054906101000a900460ff16600181111561136a57611369611dc4565b5b146113aa576040517f08c379a00000000000000000000000000000000000000000000000000000000081526004016113a190612662565b60405180910390fd5b5f82116113ec576040517f08c379a00000000000000000000000000000000000000000000000000000000081526004016113e3906128fa565b60405180910390fd5b61143c333084846002015f9054906101000a900473ffffffffffffffffffffffffffffffffffffffff1673ffffffffffffffffffffffffffffffffffffffff16611b57909392919063ffffffff16565b60055f8481526020019081526020015f205f3373ffffffffffffffffffffffffffffffffffffffff1673ffffffffffffffffffffffffffffffffffffffff1681526020019081526020015f205f9054906101000a900460ff1661158657600160055f8581526020019081526020015f205f3373ffffffffffffffffffffffffffffffffffffffff1673ffffffffffffffffffffffffffffffffffffffff1681526020019081526020015f205f6101000a81548160ff02191690831515021790555060035f8481526020019081526020015f2033908060018154018082558091505060019003905f5260205f20015f9091909190916101000a81548173ffffffffffffffffffffffffffffffffffffffff021916908373ffffffffffffffffffffffffffffffffffffffff160217905550806007015f815480929190611580906127ee565b91905055505b8160025f8581526020019081526020015f205f3373ffffffffffffffffffffffffffffffffffffffff1673ffffffffffffffffffffffffffffffffffffffff1681526020019081526020015f205f8282546115e19190612918565b9250508190555081816004015f8282546115fb9190612918565b925050819055503373ffffffffffffffffffffffffffffffffffffffff16837ff4f82575ee84a81aac4be52b6a368e9ba9df524b4f5cf8177d7cfbabe861820c846040516116499190611f66565b60405180910390a3505050565b5f60015f8981526020019081526020015f2090505f600181111561167d5761167c611dc4565b5b816006015f9054906101000a900460ff1660018111156116a05761169f611dc4565b5b146116e0576040517f08c379a00000000000000000000000000000000000000000000000000000000081526004016116d790612662565b60405180910390fd5b806001015f9054906101000a900473ffffffffffffffffffffffffffffffffffffffff1673ffffffffffffffffffffffffffffffffffffffff163373ffffffffffffffffffffffffffffffffffffffff1614611771576040517f08c379a000000000000000000000000000000000000000000000000000000000815260040161176890612995565b60405180910390fd5b80600301548611156117b8576040517f08c379a00000000000000000000000000000000000000000000000000000000081526004016117af906129fd565b60405180910390fd5b806005015481600401546117cc9190612588565b86111561180e576040517f08c379a000000000000000000000000000000000000000000000000000000000815260040161180590612a65565b60405180910390fd5b85816005015f8282546118219190612918565b9250508190555060045f8981526020019081526020015f206040518060a001604052808973ffffffffffffffffffffffffffffffffffffffff16815260200188815260200187878080601f0160208091040260200160405190810160405280939291908181526020018383808284375f81840152601f19601f82011690508083019250505050505050815260200185858080601f0160208091040260200160405190810160405280939291908181526020018383808284375f81840152601f19601f82011690508083019250505050505050815260200142815250908060018154018082558091505060019003905f5260205f2090600502015f909190919091505f820151815f015f6101000a81548173ffffffffffffffffffffffffffffffffffffffff021916908373ffffffffffffffffffffffffffffffffffffffff1602179055506020820151816001015560408201518160020190816119859190612c4d565b50606082015181600301908161199b9190612c4d565b506080820151816004015550506119f68787836002015f9054906101000a900473ffffffffffffffffffffffffffffffffffffffff1673ffffffffffffffffffffffffffffffffffffffff16611b049092919063ffffffff16565b8673ffffffffffffffffffffffffffffffffffffffff16887fbac8cf8d56d6ce79f5190c5d44509871170d06b0204720e4d09234d65fe166df8888888888604051611a45959493929190612d56565b60405180910390a35050505050505050565b6001602052805f5260405f205f91509050805f015f9054906101000a900473ffffffffffffffffffffffffffffffffffffffff1690806001015f9054906101000a900473ffffffffffffffffffffffffffffffffffffffff1690806002015f9054906101000a900473ffffffffffffffffffffffffffffffffffffffff1690806003015490806004015490806005015490806006015f9054906101000a900460ff16908060070154905088565b611b118383836001611bac565b611b5257826040517f5274afe7000000000000000000000000000000000000000000000000000000008152600401611b499190611f3e565b60405180910390fd5b505050565b611b65848484846001611c0e565b611ba657836040517f5274afe7000000000000000000000000000000000000000000000000000000008152600401611b9d9190611f3e565b60405180910390fd5b50505050565b5f8063a9059cbb60e01b9050604051815f525f1960601c86166004528460245260205f60445f808b5af1925060015f51148316611c00578383151615611bf4573d5f823e3d81fd5b5f873b113d1516831692505b806040525050949350505050565b5f806323b872dd60e01b9050604051815f525f1960601c87166004525f1960601c86166024528460445260205f60645f808c5af1925060015f51148316611c6c578383151615611c60573d5f823e3d81fd5b5f883b113d1516831692505b806040525f606052505095945050505050565b6040518061010001604052805f73ffffffffffffffffffffffffffffffffffffffff1681526020015f73ffffffffffffffffffffffffffffffffffffffff1681526020015f73ffffffffffffffffffffffffffffffffffffffff1681526020015f81526020015f81526020015f81526020015f6001811115611d0457611d03611dc4565b5b81526020015f81525090565b5f80fd5b5f80fd5b5f819050919050565b611d2a81611d18565b8114611d34575f80fd5b50565b5f81359050611d4581611d21565b92915050565b5f60208284031215611d6057611d5f611d10565b5b5f611d6d84828501611d37565b91505092915050565b5f73ffffffffffffffffffffffffffffffffffffffff82169050919050565b5f611d9f82611d76565b9050919050565b611daf81611d95565b82525050565b611dbe81611d18565b82525050565b7f4e487b71000000000000000000000000000000000000000000000000000000005f52602160045260245ffd5b60028110611e0257611e01611dc4565b5b50565b5f819050611e1282611df1565b919050565b5f611e2182611e05565b9050919050565b611e3181611e17565b82525050565b61010082015f820151611e4c5f850182611da6565b506020820151611e5f6020850182611da6565b506040820151611e726040850182611da6565b506060820151611e856060850182611db5565b506080820151611e986080850182611db5565b5060a0820151611eab60a0850182611db5565b5060c0820151611ebe60c0850182611e28565b5060e0820151611ed160e0850182611db5565b50505050565b5f61010082019050611eeb5f830184611e37565b92915050565b5f8060408385031215611f0757611f06611d10565b5b5f611f1485828601611d37565b9250506020611f2585828601611d37565b9150509250929050565b611f3881611d95565b82525050565b5f602082019050611f515f830184611f2f565b92915050565b611f6081611d18565b82525050565b5f602082019050611f795f830184611f57565b92915050565b5f81519050919050565b5f82825260208201905092915050565b5f5b83811015611fb6578082015181840152602081019050611f9b565b5f8484015250505050565b5f601f19601f8301169050919050565b5f611fdb82611f7f565b611fe58185611f89565b9350611ff5818560208601611f99565b611ffe81611fc1565b840191505092915050565b5f60a08201905061201c5f830188611f2f565b6120296020830187611f57565b818103604083015261203b8186611fd1565b9050818103606083015261204f8185611fd1565b905061205e6080830184611f57565b9695505050505050565b61207181611d95565b811461207b575f80fd5b50565b5f8135905061208c81612068565b92915050565b5f80604083850312156120a8576120a7611d10565b5b5f6120b585828601611d37565b92505060206120c68582860161207e565b9150509250929050565b5f81519050919050565b5f82825260208201905092915050565b5f819050602082019050919050565b5f82825260208201905092915050565b5f61211382611f7f565b61211d81856120f9565b935061212d818560208601611f99565b61213681611fc1565b840191505092915050565b5f60a083015f8301516121565f860182611da6565b5060208301516121696020860182611db5565b50604083015184820360408601526121818282612109565b9150506060830151848203606086015261219b8282612109565b91505060808301516121b06080860182611db5565b508091505092915050565b5f6121c68383612141565b905092915050565b5f602082019050919050565b5f6121e4826120d0565b6121ee81856120da565b935083602082028501612200856120ea565b805f5b8581101561223b578484038952815161221c85826121bb565b9450612227836121ce565b925060208a01995050600181019050612203565b50829750879550505050505092915050565b5f6020820190508181035f83015261226581846121da565b905092915050565b5f8115159050919050565b6122818161226d565b82525050565b5f60208201905061229a5f830184612278565b92915050565b5f805f606084860312156122b7576122b6611d10565b5b5f6122c48682870161207e565b93505060206122d58682870161207e565b92505060406122e686828701611d37565b9150509250925092565b5f81519050919050565b5f82825260208201905092915050565b5f819050602082019050919050565b5f6123248383611da6565b60208301905092915050565b5f602082019050919050565b5f612346826122f0565b61235081856122fa565b935061235b8361230a565b805f5b8381101561238b5781516123728882612319565b975061237d83612330565b92505060018101905061235e565b5085935050505092915050565b5f6020820190508181035f8301526123b0818461233c565b905092915050565b5f80fd5b5f80fd5b5f80fd5b5f8083601f8401126123d9576123d86123b8565b5b8235905067ffffffffffffffff8111156123f6576123f56123bc565b5b602083019150836001820283011115612412576124116123c0565b5b9250929050565b5f805f805f805f60a0888a03121561243457612433611d10565b5b5f6124418a828b01611d37565b97505060206124528a828b0161207e565b96505060406124638a828b01611d37565b955050606088013567ffffffffffffffff81111561248457612483611d14565b5b6124908a828b016123c4565b9450945050608088013567ffffffffffffffff8111156124b3576124b2611d14565b5b6124bf8a828b016123c4565b925092505092959891949750929550565b6124d981611e17565b82525050565b5f610100820190506124f35f83018b611f2f565b612500602083018a611f2f565b61250d6040830189611f2f565b61251a6060830188611f57565b6125276080830187611f57565b61253460a0830186611f57565b61254160c08301856124d0565b61254e60e0830184611f57565b9998505050505050505050565b7f4e487b71000000000000000000000000000000000000000000000000000000005f52601160045260245ffd5b5f61259282611d18565b915061259d83611d18565b92508282039050818111156125b5576125b461255b565b5b92915050565b7f4e487b71000000000000000000000000000000000000000000000000000000005f52602260045260245ffd5b5f60028204905060018216806125ff57607f821691505b602082108103612612576126116125bb565b5b50919050565b7f54726970206e6f742061637469766500000000000000000000000000000000005f82015250565b5f61264c600f83611f89565b915061265782612618565b602082019050919050565b5f6020820190508181035f83015261267981612640565b9050919050565b7f4e6f742061206d656d62657200000000000000000000000000000000000000005f82015250565b5f6126b4600c83611f89565b91506126bf82612680565b602082019050919050565b5f6020820190508181035f8301526126e1816126a8565b9050919050565b5f6126f282611d18565b91506126fd83611d18565b925082820261270b81611d18565b915082820484148315176127225761272161255b565b5b5092915050565b7f4e487b71000000000000000000000000000000000000000000000000000000005f52601260045260245ffd5b5f61276082611d18565b915061276b83611d18565b92508261277b5761277a612729565b5b828204905092915050565b7f4e6f7468696e6720746f207769746864726177000000000000000000000000005f82015250565b5f6127ba601383611f89565b91506127c582612786565b602082019050919050565b5f6020820190508181035f8301526127e7816127ae565b9050919050565b5f6127f882611d18565b91507fffffffffffffffffffffffffffffffffffffffffffffffffffffffffffffffff820361282a5761282961255b565b5b600182019050919050565b5f6040820190506128485f830185611f2f565b6128556020830184611f2f565b9392505050565b7f4e487b71000000000000000000000000000000000000000000000000000000005f52603260045260245ffd5b5f60408201905061289c5f830185611f57565b6128a96020830184611f57565b9392505050565b7f5a65726f20616d6f756e740000000000000000000000000000000000000000005f82015250565b5f6128e4600b83611f89565b91506128ef826128b0565b602082019050919050565b5f6020820190508181035f830152612911816128d8565b9050919050565b5f61292282611d18565b915061292d83611d18565b92508282019050808211156129455761294461255b565b5b92915050565b7f4e6f7420617574686f72697a6564206167656e740000000000000000000000005f82015250565b5f61297f601483611f89565b915061298a8261294b565b602082019050919050565b5f6020820190508181035f8301526129ac81612973565b9050919050565b7f45786365656473207370656e64206c696d6974000000000000000000000000005f82015250565b5f6129e7601383611f89565b91506129f2826129b3565b602082019050919050565b5f6020820190508181035f830152612a14816129db565b9050919050565b7f496e73756666696369656e742066756e647300000000000000000000000000005f82015250565b5f612a4f601283611f89565b9150612a5a82612a1b565b602082019050919050565b5f6020820190508181035f830152612a7c81612a43565b9050919050565b7f4e487b71000000000000000000000000000000000000000000000000000000005f52604160045260245ffd5b5f819050815f5260205f209050919050565b5f6020601f8301049050919050565b5f82821b905092915050565b5f60088302612b0c7fffffffffffffffffffffffffffffffffffffffffffffffffffffffffffffffff82612ad1565b612b168683612ad1565b95508019841693508086168417925050509392505050565b5f819050919050565b5f612b51612b4c612b4784611d18565b612b2e565b611d18565b9050919050565b5f819050919050565b612b6a83612b37565b612b7e612b7682612b58565b848454612add565b825550505050565b5f90565b612b92612b86565b612b9d818484612b61565b505050565b5b81811015612bc057612bb55f82612b8a565b600181019050612ba3565b5050565b601f821115612c0557612bd681612ab0565b612bdf84612ac2565b81016020851015612bee578190505b612c02612bfa85612ac2565b830182612ba2565b50505b505050565b5f82821c905092915050565b5f612c255f1984600802612c0a565b1980831691505092915050565b5f612c3d8383612c16565b9150826002028217905092915050565b612c5682611f7f565b67ffffffffffffffff811115612c6f57612c6e612a83565b5b612c7982546125e8565b612c84828285612bc4565b5f60209050601f831160018114612cb5575f8415612ca3578287015190505b612cad8582612c32565b865550612d14565b601f198416612cc386612ab0565b5f5b82811015612cea57848901518255600182019150602085019450602081019050612cc5565b86831015612d075784890151612d03601f891682612c16565b8355505b6001600288020188555050505b505050505050565b828183375f83830152505050565b5f612d358385611f89565b9350612d42838584612d1c565b612d4b83611fc1565b840190509392505050565b5f606082019050612d695f830188611f57565b8181036020830152612d7c818688612d2a565b90508181036040830152612d91818486612d2a565b9050969550505050505056fea26469706673582212209aa28e378fd2b7e5ca008efa6e9da58f59350c4170290ce7b8ea30abbc91bc6464736f6c63430008180033","linkReferences":{}},"methodIdentifiers":{"createTrip(address,address,uint256)":"7da3075f","deposit(uint256,uint256)":"e2bbb158","deposits(uint256,address)":"53a58de1","emergencyWithdraw(uint256)":"5312ea8e","getBalance(uint256)":"1e010439","getMemberDeposit(uint256,address)":"c528f5d3","getMembers(uint256)":"c477ecab","getSpends(uint256)":"5b12d2fb","getTrip(uint256)":"01011705","isMember(uint256,address)":"7d9e10f5","members(uint256,uint256)":"01fc20e2","nextTripId()":"8921a346","settle(uint256)":"8df82800","spend(uint256,address,uint256,string,string)":"f4e8f194","spends(uint256,uint256)":"3448be63","trips(uint256)":"f6824a7c"},"id":29}