{"abi":[{"type":"function","name":"castVote","inputs":[{"name":"_voteId","type":"uint256","internalType":"uint256"}],"outputs":[],"stateMutability":"nonpayable"},{"type":"function","name":"categoryBudgets","inputs":[{"name":"","type":"uint256","internalType":"uint256"},{"name":"","type":"string","internalType":"string"}],"outputs":[{"name":"budget","type":"uint256","internalType":"uint256"},{"name":"spent","type":"uint256","internalType":"uint256"}],"stateMutability":"view"},{"type":"function","name":"createTrip","inputs":[{"name":"_usdc","type":"address","internalType":"address"},{"name":"_agent","type":"address","internalType":"address"},{"name":"_spendLimit","type":"uint256","internalType":"uint256"}],"outputs":[{"name":"tripId","type":"uint256","internalType":"uint256"}],"stateMutability":"nonpayable"},{"type":"function","name":"dailySpending","inputs":[{"name":"","type":"uint256","internalType":"uint256"},{"name":"","type":"uint256","internalType":"uint256"}],"outputs":[{"name":"","type":"uint256","internalType":"uint256"}],"stateMutability":"view"},{"type":"function","name":"deposit","inputs":[{"name":"_tripId","type":"uint256","internalType":"uint256"},{"name":"_amount","type":"uint256","internalType":"uint256"}],"outputs":[],"stateMutability":"nonpayable"},{"type":"function","name":"deposits","inputs":[{"name":"","type":"uint256","internalType":"uint256"},{"name":"","type":"address","internalType":"address"}],"outputs":[{"name":"","type":"uint256","internalType":"uint256"}],"stateMutability":"view"},{"type":"function","name":"emergencyWithdraw","inputs":[{"name":"_tripId","type":"uint256","internalType":"uint256"}],"outputs":[],"stateMutability":"nonpayable"},{"type":"function","name":"executeVote","inputs":[{"name":"_voteId","type":"uint256","internalType":"uint256"}],"outputs":[],"stateMutability":"nonpayable"},{"type":"function","name":"getBalance","inputs":[{"name":"_tripId","type":"uint256","internalType":"uint256"}],"outputs":[{"name":"","type":"uint256","internalType":"uint256"}],"stateMutability":"view"},{"type":"function","name":"getCategoryBudget","inputs":[{"name":"_tripId","type":"uint256","internalType":"uint256"},{"name":"_category","type":"string","internalType":"string"}],"outputs":[{"name":"budget","type":"uint256","internalType":"uint256"},{"name":"spent","type":"uint256","internalType":"uint256"}],"stateMutability":"view"},{"type":"function","name":"getDailySpending","inputs":[{"name":"_tripId","type":"uint256","internalType":"uint256"}],"outputs":[{"name":"","type":"uint256","internalType":"uint256"}],"stateMutability":"view"},{"type":"function","name":"getMemberDeposit","inputs":[{"name":"_tripId","type":"uint256","internalType":"uint256"},{"name":"_member","type":"address","internalType":"address"}],"outputs":[{"name":"","type":"uint256","internalType":"uint256"}],"stateMutability":"view"},{"type":"function","name":"getMembers","inputs":[{"name":"_tripId","type":"uint256","internalType":"uint256"}],"outputs":[{"name":"","type":"address[]","internalType":"address[]"}],"stateMutability":"view"},{"type":"function","name":"getNanopaymentTotal","inputs":[{"name":"_tripId","type":"uint256","internalType":"uint256"}],"outputs":[{"name":"","type":"uint256","internalType":"uint256"}],"stateMutability":"view"},{"type":"function","name":"getSpends","inputs":[{"name":"_tripId","type":"uint256","internalType":"uint256"}],"outputs":[{"name":"","type":"tuple[]","internalType":"struct GroupTreasury.Spend[]","components":[{"name":"recipient","type":"address","internalType":"address"},{"name":"amount","type":"uint256","internalType":"uint256"},{"name":"category","type":"string","internalType":"string"},{"name":"description","type":"string","internalType":"string"},{"name":"timestamp","type":"uint256","internalType":"uint256"}]}],"stateMutability":"view"},{"type":"function","name":"getTrip","inputs":[{"name":"_tripId","type":"uint256","internalType":"uint256"}],"outputs":[{"name":"","type":"tuple","internalType":"struct GroupTreasury.Trip","components":[{"name":"organizer","type":"address","internalType":"address"},{"name":"agent","type":"address","internalType":"address"},{"name":"usdc","type":"address","internalType":"address"},{"name":"spendLimit","type":"uint256","internalType":"uint256"},{"name":"dailyCap","type":"uint256","internalType":"uint256"},{"name":"totalDeposited","type":"uint256","internalType":"uint256"},{"name":"totalSpent","type":"uint256","internalType":"uint256"},{"name":"status","type":"uint8","internalType":"enum GroupTreasury.TripStatus"},{"name":"memberCount","type":"uint256","internalType":"uint256"}]}],"stateMutability":"view"},{"type":"function","name":"getVoteRequest","inputs":[{"name":"_voteId","type":"uint256","internalType":"uint256"}],"outputs":[{"name":"tripId","type":"uint256","internalType":"uint256"},{"name":"recipient","type":"address","internalType":"address"},{"name":"amount","type":"uint256","internalType":"uint256"},{"name":"category","type":"string","internalType":"string"},{"name":"description","type":"string","internalType":"string"},{"name":"approvals","type":"uint256","internalType":"uint256"},{"name":"threshold","type":"uint256","internalType":"uint256"},{"name":"executed","type":"bool","internalType":"bool"}],"stateMutability":"view"},{"type":"function","name":"isMember","inputs":[{"name":"","type":"uint256","internalType":"uint256"},{"name":"","type":"address","internalType":"address"}],"outputs":[{"name":"","type":"bool","internalType":"bool"}],"stateMutability":"view"},{"type":"function","name":"members","inputs":[{"name":"","type":"uint256","internalType":"uint256"},{"name":"","type":"uint256","internalType":"uint256"}],"outputs":[{"name":"","type":"address","internalType":"address"}],"stateMutability":"view"},{"type":"function","name":"nanopayment","inputs":[{"name":"_tripId","type":"uint256","internalType":"uint256"},{"name":"_recipient","type":"address","internalType":"address"},{"name":"_amount","type":"uint256","internalType":"uint256"},{"name":"_category","type":"string","internalType":"string"},{"name":"_description","type":"string","internalType":"string"}],"outputs":[],"stateMutability":"nonpayable"},{"type":"function","name":"nanopaymentTotal","inputs":[{"name":"","type":"uint256","internalType":"uint256"}],"outputs":[{"name":"","type":"uint256","internalType":"uint256"}],"stateMutability":"view"},{"type":"function","name":"nextTripId","inputs":[],"outputs":[{"name":"","type":"uint256","internalType":"uint256"}],"stateMutability":"view"},{"type":"function","name":"nextVoteId","inputs":[],"outputs":[{"name":"","type":"uint256","internalType":"uint256"}],"stateMutability":"view"},{"type":"function","name":"requestVote","inputs":[{"name":"_tripId","type":"uint256","internalType":"uint256"},{"name":"_recipient","type":"address","internalType":"address"},{"name":"_amount","type":"uint256","internalType":"uint256"},{"name":"_category","type":"string","internalType":"string"},{"name":"_description","type":"string","internalType":"string"},{"name":"_threshold","type":"uint256","internalType":"uint256"}],"outputs":[{"name":"voteId","type":"uint256","internalType":"uint256"}],"stateMutability":"nonpayable"},{"type":"function","name":"setCategoryBudget","inputs":[{"name":"_tripId","type":"uint256","internalType":"uint256"},{"name":"_category","type":"string","internalType":"string"},{"name":"_budget","type":"uint256","internalType":"uint256"}],"outputs":[],"stateMutability":"nonpayable"},{"type":"function","name":"setDailyCap","inputs":[{"name":"_tripId","type":"uint256","internalType":"uint256"},{"name":"_dailyCap","type":"uint256","internalType":"uint256"}],"outputs":[],"stateMutability":"nonpayable"},{"type":"function","name":"settle","inputs":[{"name":"_tripId","type":"uint256","internalType":"uint256"}],"outputs":[],"stateMutability":"nonpayable"},{"type":"function","name":"spend","inputs":[{"name":"_tripId","type":"uint256","internalType":"uint256"},{"name":"_recipient","type":"address","internalType":"address"},{"name":"_amount","type":"uint256","internalType":"uint256"},{"name":"_category","type":"string","internalType":"string"},{"name":"_description","type":"string","internalType":"string"}],"outputs":[],"stateMutability":"nonpayable"},{"type":"function","name":"spends","inputs":[{"name":"","type":"uint256","internalType":"uint256"},{"name":"","type":"uint256","internalType":"uint256"}],"outputs":[{"name":"recipient","type":"address","internalType":"address"},{"name":"amount","type":"uint256","internalType":"uint256"},{"name":"category","type":"string","internalType":"string"},{"name":"description","type":"string","internalType":"string"},{"name":"timestamp","type":"uint256","internalType":"uint256"}],"stateMutability":"view"},{"type":"function","name":"trips","inputs":[{"name":"","type":"uint256","internalType":"uint256"}],"outputs":[{"name":"organizer","type":"address","internalType":"address"},{"name":"agent","type":"address","internalType":"address"},{"name":"usdc","type":"address","internalType":"address"},{"name":"spendLimit","type":"uint256","internalType":"uint256"},{"name":"dailyCap","type":"uint256","internalType":"uint256"},{"name":"totalDeposited","type":"uint256","internalType":"uint256"},{"name":"totalSpent","type":"uint256","internalType":"uint256"},{"name":"status","type":"uint8","internalType":"enum GroupTreasury.TripStatus"},{"name":"memberCount","type":"uint256","internalType":"uint256"}],"stateMutability":"view"},{"type":"function","name":"voteRequests","inputs":[{"name":"","type":"uint256","internalType":"uint256"}],"outputs":[{"name":"tripId","type":"uint256","internalType":"uint256"},{"name":"recipient","type":"address","internalType":"address"},{"name":"amount","type":"uint256","internalType":"uint256"},{"name":"category","type":"string","internalType":"string"},{"name":"description","type":"string","internalType":"string"},{"name":"approvals","type":"uint256","internalType":"uint256"},{"name":"threshold","type":"uint256","internalType":"uint256"},{"name":"executed","type":"bool","internalType":"bool"}],"stateMutability":"view"},{"type":"event","name":"CategoryBudgetSet","inputs":[{"name":"tripId","type":"uint256","indexed":true,"internalType":"uint256"},{"name":"category","type":"string","indexed":false,"internalType":"string"},{"name":"budget","type":"uint256","indexed":false,"internalType":"uint256"}],"anonymous":false},{"type":"event","name":"EmergencyWithdraw","inputs":[{"name":"tripId","type":"uint256","indexed":true,"internalType":"uint256"},{"name":"member","type":"address","indexed":true,"internalType":"address"},{"name":"amount","type":"uint256","indexed":false,"internalType":"uint256"}],"anonymous":false},{"type":"event","name":"FundsSpent","inputs":[{"name":"tripId","type":"uint256","indexed":true,"internalType":"uint256"},{"name":"recipient","type":"address","indexed":true,"internalType":"address"},{"name":"amount","type":"uint256","indexed":false,"internalType":"uint256"},{"name":"category","type":"string","indexed":false,"internalType":"string"},{"name":"description","type":"string","indexed":false,"internalType":"string"}],"anonymous":false},{"type":"event","name":"MemberJoined","inputs":[{"name":"tripId","type":"uint256","indexed":true,"internalType":"uint256"},{"name":"member","type":"address","indexed":true,"internalType":"address"},{"name":"amount","type":"uint256","indexed":false,"internalType":"uint256"}],"anonymous":false},{"type":"event","name":"NanopaymentProcessed","inputs":[{"name":"tripId","type":"uint256","indexed":true,"internalType":"uint256"},{"name":"recipient","type":"address","indexed":true,"internalType":"address"},{"name":"amount","type":"uint256","indexed":false,"internalType":"uint256"},{"name":"category","type":"string","indexed":false,"internalType":"string"},{"name":"description","type":"string","indexed":false,"internalType":"string"}],"anonymous":false},{"type":"event","name":"TripCreated","inputs":[{"name":"tripId","type":"uint256","indexed":true,"internalType":"uint256"},{"name":"organizer","type":"address","indexed":true,"internalType":"address"},{"name":"agent","type":"address","indexed":false,"internalType":"address"},{"name":"usdc","type":"address","indexed":false,"internalType":"address"}],"anonymous":false},{"type":"event","name":"TripSettled","inputs":[{"name":"tripId","type":"uint256","indexed":true,"internalType":"uint256"},{"name":"totalSpent","type":"uint256","indexed":false,"internalType":"uint256"},{"name":"totalReturned","type":"uint256","indexed":false,"internalType":"uint256"}],"anonymous":false},{"type":"event","name":"VoteCast","inputs":[{"name":"voteId","type":"uint256","indexed":true,"internalType":"uint256"},{"name":"voter","type":"address","indexed":true,"internalType":"address"},{"name":"approved","type":"bool","indexed":false,"internalType":"bool"}],"anonymous":false},{"type":"event","name":"VoteExecuted","inputs":[{"name":"voteId","type":"uint256","indexed":true,"internalType":"uint256"},{"name":"tripId","type":"uint256","indexed":true,"internalType":"uint256"}],"anonymous":false},{"type":"event","name":"VoteRequested","inputs":[{"name":"voteId","type":"uint256","indexed":true,"internalType":"uint256"},{"name":"tripId","type":"uint256","indexed":true,"internalType":"uint256"},{"name":"amount","type":"uint256","indexed":false,"internalType":"uint256"},{"name":"description","type":"string","indexed":false,"internalType":"string"}],"anonymous":false},{"type":"error","name":"SafeERC20FailedOperation","inputs":[{"name":"token","type":"address","internalType":"address"}]}],"bytecode":{"object":"0x608060405234801561000f575f80fd5b50614f938061001d5f395ff3fe608060405234801561000f575f80fd5b50600436106101e2575f3560e01c80636d7d08331161010d578063c528f5d3116100a0578063f19eef021161006f578063f19eef021461065a578063f4e8f1941461068a578063f6824a7c146106a6578063f98a4eca146106de576101e2565b8063c528f5d3146105bf578063e207d04d146105ef578063e2bbb1581461060d578063e416360814610629576101e2565b806383e2d700116100dc57806383e2d700146105395780638921a346146105555780638df8280014610573578063c477ecab1461058f576101e2565b80636d7d08331461047257806370ef09bd146104a25780637d9e10f5146104d95780637da3075f14610509576101e2565b80633448be631161018557806348d0969c1161015457806348d0969c146103bf5780635312ea8e146103f657806353a58de1146104125780635b12d2fb14610442576101e2565b80633448be631461030e5780633911ea71146103425780633eb76b9c1461037257806345d6c0991461038e576101e2565b806306c8924c116101c157806306c8924c146102625780630912a047146102925780630adb741c146102c25780631e010439146102de576101e2565b8062a2fafd146101e6578063010117051461020257806301fc20e214610232575b5f80fd5b61020060048036038101906101fb919061368a565b6106fa565b005b61021c60048036038101906102179190613741565b610b74565b60405161022991906138b2565b60405180910390f35b61024c600480360381019061024791906138cc565b610d0a565b6040516102599190613919565b60405180910390f35b61027c60048036038101906102779190613741565b610d52565b6040516102899190613941565b60405180910390f35b6102ac60048036038101906102a79190613741565b610d6c565b6040516102b99190613941565b60405180910390f35b6102dc60048036038101906102d7919061395a565b610da3565b005b6102f860048036038101906102f39190613741565b610ebb565b6040516103059190613941565b60405180910390f35b610328600480360381019061032391906138cc565b610ef7565b604051610339959493929190613a55565b60405180910390f35b61035c600480360381019061035791906138cc565b61106e565b6040516103699190613941565b60405180910390f35b61038c60048036038101906103879190613741565b61108e565b005b6103a860048036038101906103a39190613ab4565b6112de565b6040516103b6929190613b11565b60405180910390f35b6103d960048036038101906103d49190613741565b611328565b6040516103ed989796959493929190613b52565b60405180910390f35b610410600480360381019061040b9190613741565b6114c5565b005b61042c60048036038101906104279190613bdc565b611809565b6040516104399190613941565b60405180910390f35b61045c60048036038101906104579190613741565b611829565b6040516104699190613d97565b60405180910390f35b61048c60048036038101906104879190613741565b611a1e565b6040516104999190613941565b60405180910390f35b6104bc60048036038101906104b79190613741565b611a33565b6040516104d0989796959493929190613b52565b60405180910390f35b6104f360048036038101906104ee9190613bdc565b611bae565b6040516105009190613db7565b60405180910390f35b610523600480360381019061051e9190613dd0565b611bd8565b6040516105309190613941565b60405180910390f35b610553600480360381019061054e91906138cc565b611d56565b005b61055d611e13565b60405161056a9190613941565b60405180910390f35b61058d60048036038101906105889190613741565b611e18565b005b6105a960048036038101906105a49190613741565b61215e565b6040516105b69190613ec8565b60405180910390f35b6105d960048036038101906105d49190613bdc565b6121fa565b6040516105e69190613941565b60405180910390f35b6105f7612250565b6040516106049190613941565b60405180910390f35b610627600480360381019061062291906138cc565b612256565b005b610643600480360381019061063e9190614010565b61258c565b604051610651929190613b11565b60405180910390f35b610674600480360381019061066f919061406a565b6125cf565b6040516106819190613941565b60405180910390f35b6106a4600480360381019061069f919061368a565b61283e565b005b6106c060048036038101906106bb9190613741565b612db5565b6040516106d599989796959493929190614143565b60405180910390f35b6106f860048036038101906106f39190613741565b612e68565b005b5f60025f8981526020019081526020015f2090505f60018111156107215761072061378a565b5b816007015f9054906101000a900460ff1660018111156107445761074361378a565b5b14610784576040517f08c379a000000000000000000000000000000000000000000000000000000000815260040161077b90614218565b60405180910390fd5b806001015f9054906101000a900473ffffffffffffffffffffffffffffffffffffffff1673ffffffffffffffffffffffffffffffffffffffff163373ffffffffffffffffffffffffffffffffffffffff1614610815576040517f08c379a000000000000000000000000000000000000000000000000000000000815260040161080c90614280565b60405180910390fd5b8060060154816005015461082991906142cb565b86111561086b576040517f08c379a000000000000000000000000000000000000000000000000000000000815260040161086290614348565b60405180910390fd5b5f816004015411156108bc578560075f8a81526020019081526020015f205f62015180426108999190614393565b81526020019081526020015f205f8282546108b491906143c3565b925050819055505b8560085f8a81526020019081526020015f2086866040516108de929190614424565b90815260200160405180910390206001015f8282546108fd91906143c3565b9250508190555085816006015f82825461091791906143c3565b925050819055508560095f8a81526020019081526020015f205f82825461093e91906143c3565b9250508190555060055f8981526020019081526020015f206040518060a001604052808973ffffffffffffffffffffffffffffffffffffffff16815260200188815260200187878080601f0160208091040260200160405190810160405280939291908181526020018383808284375f81840152601f19601f82011690508083019250505050505050815260200185858080601f0160208091040260200160405190810160405280939291908181526020018383808284375f81840152601f19601f82011690508083019250505050505050815260200142815250908060018154018082558091505060019003905f5260205f2090600502015f909190919091505f820151815f015f6101000a81548173ffffffffffffffffffffffffffffffffffffffff021916908373ffffffffffffffffffffffffffffffffffffffff160217905550602082015181600101556040820151816002019081610aa29190614636565b506060820151816003019081610ab89190614636565b50608082015181600401555050610b138787836002015f9054906101000a900473ffffffffffffffffffffffffffffffffffffffff1673ffffffffffffffffffffffffffffffffffffffff166133799092919063ffffffff16565b8673ffffffffffffffffffffffffffffffffffffffff16887f228a8dc004dedda8d3a55f39290a8ece4f954778b58cca42c927d586e65e07ae8888888888604051610b62959493929190614731565b60405180910390a35050505050505050565b610b7c6134f4565b60025f8381526020019081526020015f20604051806101200160405290815f82015f9054906101000a900473ffffffffffffffffffffffffffffffffffffffff1673ffffffffffffffffffffffffffffffffffffffff1673ffffffffffffffffffffffffffffffffffffffff168152602001600182015f9054906101000a900473ffffffffffffffffffffffffffffffffffffffff1673ffffffffffffffffffffffffffffffffffffffff1673ffffffffffffffffffffffffffffffffffffffff168152602001600282015f9054906101000a900473ffffffffffffffffffffffffffffffffffffffff1673ffffffffffffffffffffffffffffffffffffffff1673ffffffffffffffffffffffffffffffffffffffff16815260200160038201548152602001600482015481526020016005820154815260200160068201548152602001600782015f9054906101000a900460ff166001811115610ce357610ce261378a565b5b6001811115610cf557610cf461378a565b5b81526020016008820154815250509050919050565b6004602052815f5260405f208181548110610d23575f80fd5b905f5260205f20015f915091509054906101000a900473ffffffffffffffffffffffffffffffffffffffff1681565b5f60095f8381526020019081526020015f20549050919050565b5f60075f8381526020019081526020015f205f6201518042610d8e9190614393565b81526020019081526020015f20549050919050565b60025f8581526020019081526020015f205f015f9054906101000a900473ffffffffffffffffffffffffffffffffffffffff1673ffffffffffffffffffffffffffffffffffffffff163373ffffffffffffffffffffffffffffffffffffffff1614610e43576040517f08c379a0000000000000000000000000000000000000000000000000000000008152600401610e3a906147c2565b60405180910390fd5b8060085f8681526020019081526020015f208484604051610e65929190614424565b90815260200160405180910390205f0181905550837f147fdce53ba5fc5880b41619f109db31dd115dcc89dbc77a5019f58a764e7e02848484604051610ead939291906147e0565b60405180910390a250505050565b5f60025f8381526020019081526020015f206006015460025f8481526020019081526020015f2060050154610ef091906142cb565b9050919050565b6005602052815f5260405f208181548110610f10575f80fd5b905f5260205f2090600502015f9150915050805f015f9054906101000a900473ffffffffffffffffffffffffffffffffffffffff1690806001015490806002018054610f5b90614469565b80601f0160208091040260200160405190810160405280929190818152602001828054610f8790614469565b8015610fd25780601f10610fa957610100808354040283529160200191610fd2565b820191905f5260205f20905b815481529060010190602001808311610fb557829003601f168201915b505050505090806003018054610fe790614469565b80601f016020809104026020016040519081016040528092919081815260200182805461101390614469565b801561105e5780601f106110355761010080835404028352916020019161105e565b820191905f5260205f20905b81548152906001019060200180831161104157829003601f168201915b5050505050908060040154905085565b6007602052815f5260405f20602052805f5260405f205f91509150505481565b5f600a5f8381526020019081526020015f20905060065f825f015481526020019081526020015f205f3373ffffffffffffffffffffffffffffffffffffffff1673ffffffffffffffffffffffffffffffffffffffff1681526020019081526020015f205f9054906101000a900460ff1661113d576040517f08c379a00000000000000000000000000000000000000000000000000000000081526004016111349061485a565b60405180910390fd5b806008015f3373ffffffffffffffffffffffffffffffffffffffff1673ffffffffffffffffffffffffffffffffffffffff1681526020019081526020015f205f9054906101000a900460ff16156111c9576040517f08c379a00000000000000000000000000000000000000000000000000000000081526004016111c0906148c2565b60405180910390fd5b806007015f9054906101000a900460ff161561121a576040517f08c379a00000000000000000000000000000000000000000000000000000000081526004016112119061492a565b60405180910390fd5b6001816008015f3373ffffffffffffffffffffffffffffffffffffffff1673ffffffffffffffffffffffffffffffffffffffff1681526020019081526020015f205f6101000a81548160ff021916908315150217905550806005015f81548092919061128590614948565b91905055503373ffffffffffffffffffffffffffffffffffffffff16827fe71fcdac32df1877c1700e7bda2a03157e20993363a28fc35ac495cefc76e4d460016040516112d29190613db7565b60405180910390a35050565b5f805f60085f8781526020019081526020015f208585604051611302929190614424565b90815260200160405180910390209050805f015481600101549250925050935093915050565b5f805f6060805f805f80600a5f8b81526020019081526020015f209050805f0154816001015f9054906101000a900473ffffffffffffffffffffffffffffffffffffffff168260020154836003018460040185600501548660060154876007015f9054906101000a900460ff168480546113a190614469565b80601f01602080910402602001604051908101604052809291908181526020018280546113cd90614469565b80156114185780601f106113ef57610100808354040283529160200191611418565b820191905f5260205f20905b8154815290600101906020018083116113fb57829003601f168201915b5050505050945083805461142b90614469565b80601f016020809104026020016040519081016040528092919081815260200182805461145790614469565b80156114a25780601f10611479576101008083540402835291602001916114a2565b820191905f5260205f20905b81548152906001019060200180831161148557829003601f168201915b505050505093509850985098509850985098509850985050919395975091939597565b5f60025f8381526020019081526020015f2090505f60018111156114ec576114eb61378a565b5b816007015f9054906101000a900460ff16600181111561150f5761150e61378a565b5b1461154f576040517f08c379a000000000000000000000000000000000000000000000000000000000815260040161154690614218565b60405180910390fd5b60065f8381526020019081526020015f205f3373ffffffffffffffffffffffffffffffffffffffff1673ffffffffffffffffffffffffffffffffffffffff1681526020019081526020015f205f9054906101000a900460ff166115e7576040517f08c379a00000000000000000000000000000000000000000000000000000000081526004016115de9061485a565b60405180910390fd5b5f816006015482600501546115fc91906142cb565b90505f826005015460035f8681526020019081526020015f205f3373ffffffffffffffffffffffffffffffffffffffff1673ffffffffffffffffffffffffffffffffffffffff1681526020019081526020015f20548361165c919061498f565b6116669190614393565b90505f81116116aa576040517f08c379a00000000000000000000000000000000000000000000000000000000081526004016116a190614a1a565b60405180910390fd5b5f60035f8681526020019081526020015f205f3373ffffffffffffffffffffffffffffffffffffffff1673ffffffffffffffffffffffffffffffffffffffff1681526020019081526020015f205490505f60035f8781526020019081526020015f205f3373ffffffffffffffffffffffffffffffffffffffff1673ffffffffffffffffffffffffffffffffffffffff1681526020019081526020015f208190555080846005015f82825461175e91906142cb565b925050819055506117b33383866002015f9054906101000a900473ffffffffffffffffffffffffffffffffffffffff1673ffffffffffffffffffffffffffffffffffffffff166133799092919063ffffffff16565b3373ffffffffffffffffffffffffffffffffffffffff16857f947a9dc0c5e62cc9756634ec0a89afea37eb0305933925040b9bda8200440020846040516117fa9190613941565b60405180910390a35050505050565b6003602052815f5260405f20602052805f5260405f205f91509150505481565b606060055f8381526020019081526020015f20805480602002602001604051908101604052809291908181526020015f905b82821015611a13578382905f5260205f2090600502016040518060a00160405290815f82015f9054906101000a900473ffffffffffffffffffffffffffffffffffffffff1673ffffffffffffffffffffffffffffffffffffffff1673ffffffffffffffffffffffffffffffffffffffff168152602001600182015481526020016002820180546118ea90614469565b80601f016020809104026020016040519081016040528092919081815260200182805461191690614469565b80156119615780601f1061193857610100808354040283529160200191611961565b820191905f5260205f20905b81548152906001019060200180831161194457829003601f168201915b5050505050815260200160038201805461197a90614469565b80601f01602080910402602001604051908101604052809291908181526020018280546119a690614469565b80156119f15780601f106119c8576101008083540402835291602001916119f1565b820191905f5260205f20905b8154815290600101906020018083116119d457829003601f168201915b505050505081526020016004820154815250508152602001906001019061185b565b505050509050919050565b6009602052805f5260405f205f915090505481565b600a602052805f5260405f205f91509050805f015490806001015f9054906101000a900473ffffffffffffffffffffffffffffffffffffffff1690806002015490806003018054611a8390614469565b80601f0160208091040260200160405190810160405280929190818152602001828054611aaf90614469565b8015611afa5780601f10611ad157610100808354040283529160200191611afa565b820191905f5260205f20905b815481529060010190602001808311611add57829003601f168201915b505050505090806004018054611b0f90614469565b80601f0160208091040260200160405190810160405280929190818152602001828054611b3b90614469565b8015611b865780601f10611b5d57610100808354040283529160200191611b86565b820191905f5260205f20905b815481529060010190602001808311611b6957829003601f168201915b505050505090806005015490806006015490806007015f9054906101000a900460ff16905088565b6006602052815f5260405f20602052805f5260405f205f915091509054906101000a900460ff1681565b5f805f815480929190611bea90614948565b9190505590505f60025f8381526020019081526020015f20905033815f015f6101000a81548173ffffffffffffffffffffffffffffffffffffffff021916908373ffffffffffffffffffffffffffffffffffffffff16021790555083816001015f6101000a81548173ffffffffffffffffffffffffffffffffffffffff021916908373ffffffffffffffffffffffffffffffffffffffff16021790555084816002015f6101000a81548173ffffffffffffffffffffffffffffffffffffffff021916908373ffffffffffffffffffffffffffffffffffffffff1602179055508281600301819055505f816007015f6101000a81548160ff02191690836001811115611cf857611cf761378a565b5b02179055503373ffffffffffffffffffffffffffffffffffffffff16827f86bd0c0f9ab4b95670ce267950464e9f790fe1d097c4b6d6ffdcf573480b037d8688604051611d46929190614a38565b60405180910390a3509392505050565b60025f8381526020019081526020015f205f015f9054906101000a900473ffffffffffffffffffffffffffffffffffffffff1673ffffffffffffffffffffffffffffffffffffffff163373ffffffffffffffffffffffffffffffffffffffff1614611df6576040517f08c379a0000000000000000000000000000000000000000000000000000000008152600401611ded906147c2565b60405180910390fd5b8060025f8481526020019081526020015f20600401819055505050565b5f5481565b5f60025f8381526020019081526020015f2090505f6001811115611e3f57611e3e61378a565b5b816007015f9054906101000a900460ff166001811115611e6257611e6161378a565b5b14611ea2576040517f08c379a0000000000000000000000000000000000000000000000000000000008152600401611e9990614218565b60405180910390fd5b805f015f9054906101000a900473ffffffffffffffffffffffffffffffffffffffff1673ffffffffffffffffffffffffffffffffffffffff163373ffffffffffffffffffffffffffffffffffffffff161480611f53575060065f8381526020019081526020015f205f3373ffffffffffffffffffffffffffffffffffffffff1673ffffffffffffffffffffffffffffffffffffffff1681526020019081526020015f205f9054906101000a900460ff165b611f92576040517f08c379a0000000000000000000000000000000000000000000000000000000008152600401611f899061485a565b60405180910390fd5b6001816007015f6101000a81548160ff02191690836001811115611fb957611fb861378a565b5b02179055505f81600601548260050154611fd391906142cb565b90505f81111561211b575f5b60045f8581526020019081526020015f2080549050811015612119575f60045f8681526020019081526020015f20828154811061201f5761201e614a5f565b5b905f5260205f20015f9054906101000a900473ffffffffffffffffffffffffffffffffffffffff1690505f846005015460035f8881526020019081526020015f205f8473ffffffffffffffffffffffffffffffffffffffff1673ffffffffffffffffffffffffffffffffffffffff1681526020019081526020015f2054856120a7919061498f565b6120b19190614393565b90505f81111561210a576121098282876002015f9054906101000a900473ffffffffffffffffffffffffffffffffffffffff1673ffffffffffffffffffffffffffffffffffffffff166133799092919063ffffffff16565b5b50508080600101915050611fdf565b505b827f2b4e6e807d883fa1eebb7fa4e3800f3bdad83741e4ede209a0d7bdfed989a557836006015483604051612151929190613b11565b60405180910390a2505050565b606060045f8381526020019081526020015f208054806020026020016040519081016040528092919081815260200182805480156121ee57602002820191905f5260205f20905b815f9054906101000a900473ffffffffffffffffffffffffffffffffffffffff1673ffffffffffffffffffffffffffffffffffffffff16815260200190600101908083116121a5575b50505050509050919050565b5f60035f8481526020019081526020015f205f8373ffffffffffffffffffffffffffffffffffffffff1673ffffffffffffffffffffffffffffffffffffffff1681526020019081526020015f2054905092915050565b60015481565b5f60025f8481526020019081526020015f2090505f600181111561227d5761227c61378a565b5b816007015f9054906101000a900460ff1660018111156122a05761229f61378a565b5b146122e0576040517f08c379a00000000000000000000000000000000000000000000000000000000081526004016122d790614218565b60405180910390fd5b5f8211612322576040517f08c379a000000000000000000000000000000000000000000000000000000000815260040161231990614ad6565b60405180910390fd5b612372333084846002015f9054906101000a900473ffffffffffffffffffffffffffffffffffffffff1673ffffffffffffffffffffffffffffffffffffffff166133cc909392919063ffffffff16565b60065f8481526020019081526020015f205f3373ffffffffffffffffffffffffffffffffffffffff1673ffffffffffffffffffffffffffffffffffffffff1681526020019081526020015f205f9054906101000a900460ff166124bc57600160065f8581526020019081526020015f205f3373ffffffffffffffffffffffffffffffffffffffff1673ffffffffffffffffffffffffffffffffffffffff1681526020019081526020015f205f6101000a81548160ff02191690831515021790555060045f8481526020019081526020015f2033908060018154018082558091505060019003905f5260205f20015f9091909190916101000a81548173ffffffffffffffffffffffffffffffffffffffff021916908373ffffffffffffffffffffffffffffffffffffffff160217905550806008015f8154809291906124b690614948565b91905055505b8160035f8581526020019081526020015f205f3373ffffffffffffffffffffffffffffffffffffffff1673ffffffffffffffffffffffffffffffffffffffff1681526020019081526020015f205f82825461251791906143c3565b9250508190555081816005015f82825461253191906143c3565b925050819055503373ffffffffffffffffffffffffffffffffffffffff16837ff4f82575ee84a81aac4be52b6a368e9ba9df524b4f5cf8177d7cfbabe861820c8460405161257f9190613941565b60405180910390a3505050565b6008602052815f5260405f20818051602081018201805184825260208301602085012081835280955050505050505f9150915050805f0154908060010154905082565b5f8060025f8b81526020019081526020015f2090505f60018111156125f7576125f661378a565b5b816007015f9054906101000a900460ff16600181111561261a5761261961378a565b5b1461265a576040517f08c379a000000000000000000000000000000000000000000000000000000000815260040161265190614218565b60405180910390fd5b806001015f9054906101000a900473ffffffffffffffffffffffffffffffffffffffff1673ffffffffffffffffffffffffffffffffffffffff163373ffffffffffffffffffffffffffffffffffffffff1614806127045750805f015f9054906101000a900473ffffffffffffffffffffffffffffffffffffffff1673ffffffffffffffffffffffffffffffffffffffff163373ffffffffffffffffffffffffffffffffffffffff16145b612743576040517f08c379a000000000000000000000000000000000000000000000000000000000815260040161273a90614b3e565b60405180910390fd5b60015f81548092919061275590614948565b9190505591505f600a5f8481526020019081526020015f2090508a815f018190555089816001015f6101000a81548173ffffffffffffffffffffffffffffffffffffffff021916908373ffffffffffffffffffffffffffffffffffffffff16021790555088816002018190555087878260030191826127d5929190614b66565b5085858260040191826127e9929190614b66565b508381600601819055508a837fdc75d8442814465e9ab5e25eb1439a4c2e1c96efbdd5ac0706c47bf4616a59f98b898960405161282893929190614c33565b60405180910390a3505098975050505050505050565b5f60025f8981526020019081526020015f2090505f60018111156128655761286461378a565b5b816007015f9054906101000a900460ff1660018111156128885761288761378a565b5b146128c8576040517f08c379a00000000000000000000000000000000000000000000000000000000081526004016128bf90614218565b60405180910390fd5b806001015f9054906101000a900473ffffffffffffffffffffffffffffffffffffffff1673ffffffffffffffffffffffffffffffffffffffff163373ffffffffffffffffffffffffffffffffffffffff1614612959576040517f08c379a000000000000000000000000000000000000000000000000000000000815260040161295090614280565b60405180910390fd5b80600301548611156129a0576040517f08c379a000000000000000000000000000000000000000000000000000000000815260040161299790614cad565b60405180910390fd5b806006015481600501546129b491906142cb565b8611156129f6576040517f08c379a00000000000000000000000000000000000000000000000000000000081526004016129ed90614348565b60405180910390fd5b5f81600401541115612abe575f6201518042612a129190614393565b905081600401548760075f8c81526020019081526020015f205f8481526020019081526020015f2054612a4591906143c3565b1115612a86576040517f08c379a0000000000000000000000000000000000000000000000000000000008152600401612a7d90614d15565b60405180910390fd5b8660075f8b81526020019081526020015f205f8381526020019081526020015f205f828254612ab591906143c3565b92505081905550505b5f60085f8a81526020019081526020015f208686604051612ae0929190614424565b908152602001604051809103902090505f815f01541115612b5157805f0154878260010154612b0f91906143c3565b1115612b50576040517f08c379a0000000000000000000000000000000000000000000000000000000008152600401612b4790614d7d565b60405180910390fd5b5b86816001015f828254612b6491906143c3565b9250508190555086826006015f828254612b7e91906143c3565b9250508190555060055f8a81526020019081526020015f206040518060a001604052808a73ffffffffffffffffffffffffffffffffffffffff16815260200189815260200188888080601f0160208091040260200160405190810160405280939291908181526020018383808284375f81840152601f19601f82011690508083019250505050505050815260200186868080601f0160208091040260200160405190810160405280939291908181526020018383808284375f81840152601f19601f82011690508083019250505050505050815260200142815250908060018154018082558091505060019003905f5260205f2090600502015f909190919091505f820151815f015f6101000a81548173ffffffffffffffffffffffffffffffffffffffff021916908373ffffffffffffffffffffffffffffffffffffffff160217905550602082015181600101556040820151816002019081612ce29190614636565b506060820151816003019081612cf89190614636565b50608082015181600401555050612d538888846002015f9054906101000a900473ffffffffffffffffffffffffffffffffffffffff1673ffffffffffffffffffffffffffffffffffffffff166133799092919063ffffffff16565b8773ffffffffffffffffffffffffffffffffffffffff16897fbac8cf8d56d6ce79f5190c5d44509871170d06b0204720e4d09234d65fe166df8989898989604051612da2959493929190614731565b60405180910390a3505050505050505050565b6002602052805f5260405f205f91509050805f015f9054906101000a900473ffffffffffffffffffffffffffffffffffffffff1690806001015f9054906101000a900473ffffffffffffffffffffffffffffffffffffffff1690806002015f9054906101000a900473ffffffffffffffffffffffffffffffffffffffff1690806003015490806004015490806005015490806006015490806007015f9054906101000a900460ff16908060080154905089565b5f600a5f8381526020019081526020015f2090505f60025f835f015481526020019081526020015f209050816007015f9054906101000a900460ff1615612ee4576040517f08c379a0000000000000000000000000000000000000000000000000000000008152600401612edb9061492a565b60405180910390fd5b816006015482600501541015612f2f576040517f08c379a0000000000000000000000000000000000000000000000000000000008152600401612f2690614de5565b60405180910390fd5b80600601548160050154612f4391906142cb565b82600201541115612f89576040517f08c379a0000000000000000000000000000000000000000000000000000000008152600401612f8090614348565b60405180910390fd5b6001826007015f6101000a81548160ff0219169083151502179055508160020154816006015f828254612fbc91906143c3565b92505081905550816002015460085f845f015481526020019081526020015f2083600301604051612fed9190614e83565b90815260200160405180910390206001015f82825461300c91906143c3565b9250508190555060055f835f015481526020019081526020015f206040518060a00160405280846001015f9054906101000a900473ffffffffffffffffffffffffffffffffffffffff1673ffffffffffffffffffffffffffffffffffffffff1681526020018460020154815260200184600301805461308a90614469565b80601f01602080910402602001604051908101604052809291908181526020018280546130b690614469565b80156131015780601f106130d857610100808354040283529160200191613101565b820191905f5260205f20905b8154815290600101906020018083116130e457829003601f168201915b5050505050815260200184600401805461311a90614469565b80601f016020809104026020016040519081016040528092919081815260200182805461314690614469565b80156131915780601f1061316857610100808354040283529160200191613191565b820191905f5260205f20905b81548152906001019060200180831161317457829003601f168201915b5050505050815260200142815250908060018154018082558091505060019003905f5260205f2090600502015f909190919091505f820151815f015f6101000a81548173ffffffffffffffffffffffffffffffffffffffff021916908373ffffffffffffffffffffffffffffffffffffffff1602179055506020820151816001015560408201518160020190816132289190614636565b50606082015181600301908161323e9190614636565b506080820151816004015550506132c0826001015f9054906101000a900473ffffffffffffffffffffffffffffffffffffffff168360020154836002015f9054906101000a900473ffffffffffffffffffffffffffffffffffffffff1673ffffffffffffffffffffffffffffffffffffffff166133799092919063ffffffff16565b816001015f9054906101000a900473ffffffffffffffffffffffffffffffffffffffff1673ffffffffffffffffffffffffffffffffffffffff16825f01547fbac8cf8d56d6ce79f5190c5d44509871170d06b0204720e4d09234d65fe166df8460020154856003018660040160405161333b93929190614f1a565b60405180910390a3815f0154837f8267f1e1725952ace5818b2ab7c01df7e8dc1b28f7d74647e9b7ee11c505f41260405160405180910390a3505050565b6133868383836001613421565b6133c757826040517f5274afe70000000000000000000000000000000000000000000000000000000081526004016133be9190613919565b60405180910390fd5b505050565b6133da848484846001613483565b61341b57836040517f5274afe70000000000000000000000000000000000000000000000000000000081526004016134129190613919565b60405180910390fd5b50505050565b5f8063a9059cbb60e01b9050604051815f525f1960601c86166004528460245260205f60445f808b5af1925060015f51148316613475578383151615613469573d5f823e3d81fd5b5f873b113d1516831692505b806040525050949350505050565b5f806323b872dd60e01b9050604051815f525f1960601c87166004525f1960601c86166024528460445260205f60645f808c5af1925060015f511483166134e15783831516156134d5573d5f823e3d81fd5b5f883b113d1516831692505b806040525f606052505095945050505050565b6040518061012001604052805f73ffffffffffffffffffffffffffffffffffffffff1681526020015f73ffffffffffffffffffffffffffffffffffffffff1681526020015f73ffffffffffffffffffffffffffffffffffffffff1681526020015f81526020015f81526020015f81526020015f81526020015f600181111561357f5761357e61378a565b5b81526020015f81525090565b5f604051905090565b5f80fd5b5f80fd5b5f819050919050565b6135ae8161359c565b81146135b8575f80fd5b50565b5f813590506135c9816135a5565b92915050565b5f73ffffffffffffffffffffffffffffffffffffffff82169050919050565b5f6135f8826135cf565b9050919050565b613608816135ee565b8114613612575f80fd5b50565b5f81359050613623816135ff565b92915050565b5f80fd5b5f80fd5b5f80fd5b5f8083601f84011261364a57613649613629565b5b8235905067ffffffffffffffff8111156136675761366661362d565b5b60208301915083600182028301111561368357613682613631565b5b9250929050565b5f805f805f805f60a0888a0312156136a5576136a4613594565b5b5f6136b28a828b016135bb565b97505060206136c38a828b01613615565b96505060406136d48a828b016135bb565b955050606088013567ffffffffffffffff8111156136f5576136f4613598565b5b6137018a828b01613635565b9450945050608088013567ffffffffffffffff81111561372457613723613598565b5b6137308a828b01613635565b925092505092959891949750929550565b5f6020828403121561375657613755613594565b5b5f613763848285016135bb565b91505092915050565b613775816135ee565b82525050565b6137848161359c565b82525050565b7f4e487b71000000000000000000000000000000000000000000000000000000005f52602160045260245ffd5b600281106137c8576137c761378a565b5b50565b5f8190506137d8826137b7565b919050565b5f6137e7826137cb565b9050919050565b6137f7816137dd565b82525050565b61012082015f8201516138125f85018261376c565b506020820151613825602085018261376c565b506040820151613838604085018261376c565b50606082015161384b606085018261377b565b50608082015161385e608085018261377b565b5060a082015161387160a085018261377b565b5060c082015161388460c085018261377b565b5060e082015161389760e08501826137ee565b506101008201516138ac61010085018261377b565b50505050565b5f610120820190506138c65f8301846137fd565b92915050565b5f80604083850312156138e2576138e1613594565b5b5f6138ef858286016135bb565b9250506020613900858286016135bb565b9150509250929050565b613913816135ee565b82525050565b5f60208201905061392c5f83018461390a565b92915050565b61393b8161359c565b82525050565b5f6020820190506139545f830184613932565b92915050565b5f805f806060858703121561397257613971613594565b5b5f61397f878288016135bb565b945050602085013567ffffffffffffffff8111156139a05761399f613598565b5b6139ac87828801613635565b935093505060406139bf878288016135bb565b91505092959194509250565b5f81519050919050565b5f82825260208201905092915050565b5f5b83811015613a025780820151818401526020810190506139e7565b5f8484015250505050565b5f601f19601f8301169050919050565b5f613a27826139cb565b613a3181856139d5565b9350613a418185602086016139e5565b613a4a81613a0d565b840191505092915050565b5f60a082019050613a685f83018861390a565b613a756020830187613932565b8181036040830152613a878186613a1d565b90508181036060830152613a9b8185613a1d565b9050613aaa6080830184613932565b9695505050505050565b5f805f60408486031215613acb57613aca613594565b5b5f613ad8868287016135bb565b935050602084013567ffffffffffffffff811115613af957613af8613598565b5b613b0586828701613635565b92509250509250925092565b5f604082019050613b245f830185613932565b613b316020830184613932565b9392505050565b5f8115159050919050565b613b4c81613b38565b82525050565b5f61010082019050613b665f83018b613932565b613b73602083018a61390a565b613b806040830189613932565b8181036060830152613b928188613a1d565b90508181036080830152613ba68187613a1d565b9050613bb560a0830186613932565b613bc260c0830185613932565b613bcf60e0830184613b43565b9998505050505050505050565b5f8060408385031215613bf257613bf1613594565b5b5f613bff858286016135bb565b9250506020613c1085828601613615565b9150509250929050565b5f81519050919050565b5f82825260208201905092915050565b5f819050602082019050919050565b5f82825260208201905092915050565b5f613c5d826139cb565b613c678185613c43565b9350613c778185602086016139e5565b613c8081613a0d565b840191505092915050565b5f60a083015f830151613ca05f86018261376c565b506020830151613cb3602086018261377b565b5060408301518482036040860152613ccb8282613c53565b91505060608301518482036060860152613ce58282613c53565b9150506080830151613cfa608086018261377b565b508091505092915050565b5f613d108383613c8b565b905092915050565b5f602082019050919050565b5f613d2e82613c1a565b613d388185613c24565b935083602082028501613d4a85613c34565b805f5b85811015613d855784840389528151613d668582613d05565b9450613d7183613d18565b925060208a01995050600181019050613d4d565b50829750879550505050505092915050565b5f6020820190508181035f830152613daf8184613d24565b905092915050565b5f602082019050613dca5f830184613b43565b92915050565b5f805f60608486031215613de757613de6613594565b5b5f613df486828701613615565b9350506020613e0586828701613615565b9250506040613e16868287016135bb565b9150509250925092565b5f81519050919050565b5f82825260208201905092915050565b5f819050602082019050919050565b5f613e54838361376c565b60208301905092915050565b5f602082019050919050565b5f613e7682613e20565b613e808185613e2a565b9350613e8b83613e3a565b805f5b83811015613ebb578151613ea28882613e49565b9750613ead83613e60565b925050600181019050613e8e565b5085935050505092915050565b5f6020820190508181035f830152613ee08184613e6c565b905092915050565b5f80fd5b7f4e487b71000000000000000000000000000000000000000000000000000000005f52604160045260245ffd5b613f2282613a0d565b810181811067ffffffffffffffff82111715613f4157613f40613eec565b5b80604052505050565b5f613f5361358b565b9050613f5f8282613f19565b919050565b5f67ffffffffffffffff821115613f7e57613f7d613eec565b5b613f8782613a0d565b9050602081019050919050565b828183375f83830152505050565b5f613fb4613faf84613f64565b613f4a565b905082815260208101848484011115613fd057613fcf613ee8565b5b613fdb848285613f94565b509392505050565b5f82601f830112613ff757613ff6613629565b5b8135614007848260208601613fa2565b91505092915050565b5f806040838503121561402657614025613594565b5b5f614033858286016135bb565b925050602083013567ffffffffffffffff81111561405457614053613598565b5b61406085828601613fe3565b9150509250929050565b5f805f805f805f8060c0898b03121561408657614085613594565b5b5f6140938b828c016135bb565b98505060206140a48b828c01613615565b97505060406140b58b828c016135bb565b965050606089013567ffffffffffffffff8111156140d6576140d5613598565b5b6140e28b828c01613635565b9550955050608089013567ffffffffffffffff81111561410557614104613598565b5b6141118b828c01613635565b935093505060a06141248b828c016135bb565b9150509295985092959890939650565b61413d816137dd565b82525050565b5f610120820190506141575f83018c61390a565b614164602083018b61390a565b614171604083018a61390a565b61417e6060830189613932565b61418b6080830188613932565b61419860a0830187613932565b6141a560c0830186613932565b6141b260e0830185614134565b6141c0610100830184613932565b9a9950505050505050505050565b7f54726970206e6f742061637469766500000000000000000000000000000000005f82015250565b5f614202600f836139d5565b915061420d826141ce565b602082019050919050565b5f6020820190508181035f83015261422f816141f6565b9050919050565b7f4e6f7420617574686f72697a6564206167656e740000000000000000000000005f82015250565b5f61426a6014836139d5565b915061427582614236565b602082019050919050565b5f6020820190508181035f8301526142978161425e565b9050919050565b7f4e487b71000000000000000000000000000000000000000000000000000000005f52601160045260245ffd5b5f6142d58261359c565b91506142e08361359c565b92508282039050818111156142f8576142f761429e565b5b92915050565b7f496e73756666696369656e742066756e647300000000000000000000000000005f82015250565b5f6143326012836139d5565b915061433d826142fe565b602082019050919050565b5f6020820190508181035f83015261435f81614326565b9050919050565b7f4e487b71000000000000000000000000000000000000000000000000000000005f52601260045260245ffd5b5f61439d8261359c565b91506143a88361359c565b9250826143b8576143b7614366565b5b828204905092915050565b5f6143cd8261359c565b91506143d88361359c565b92508282019050808211156143f0576143ef61429e565b5b92915050565b5f81905092915050565b5f61440b83856143f6565b9350614418838584613f94565b82840190509392505050565b5f614430828486614400565b91508190509392505050565b7f4e487b71000000000000000000000000000000000000000000000000000000005f52602260045260245ffd5b5f600282049050600182168061448057607f821691505b6020821081036144935761449261443c565b5b50919050565b5f819050815f5260205f209050919050565b5f6020601f8301049050919050565b5f82821b905092915050565b5f600883026144f57fffffffffffffffffffffffffffffffffffffffffffffffffffffffffffffffff826144ba565b6144ff86836144ba565b95508019841693508086168417925050509392505050565b5f819050919050565b5f61453a6145356145308461359c565b614517565b61359c565b9050919050565b5f819050919050565b61455383614520565b61456761455f82614541565b8484546144c6565b825550505050565b5f90565b61457b61456f565b61458681848461454a565b505050565b5b818110156145a95761459e5f82614573565b60018101905061458c565b5050565b601f8211156145ee576145bf81614499565b6145c8846144ab565b810160208510156145d7578190505b6145eb6145e3856144ab565b83018261458b565b50505b505050565b5f82821c905092915050565b5f61460e5f19846008026145f3565b1980831691505092915050565b5f61462683836145ff565b9150826002028217905092915050565b61463f826139cb565b67ffffffffffffffff81111561465857614657613eec565b5b6146628254614469565b61466d8282856145ad565b5f60209050601f83116001811461469e575f841561468c578287015190505b614696858261461b565b8655506146fd565b601f1984166146ac86614499565b5f5b828110156146d3578489015182556001820191506020850194506020810190506146ae565b868310156146f057848901516146ec601f8916826145ff565b8355505b6001600288020188555050505b505050505050565b5f61471083856139d5565b935061471d838584613f94565b61472683613a0d565b840190509392505050565b5f6060820190506147445f830188613932565b8181036020830152614757818688614705565b9050818103604083015261476c818486614705565b90509695505050505050565b7f4e6f74206f7267616e697a6572000000000000000000000000000000000000005f82015250565b5f6147ac600d836139d5565b91506147b782614778565b602082019050919050565b5f6020820190508181035f8301526147d9816147a0565b9050919050565b5f6040820190508181035f8301526147f9818587614705565b90506148086020830184613932565b949350505050565b7f4e6f742061206d656d62657200000000000000000000000000000000000000005f82015250565b5f614844600c836139d5565b915061484f82614810565b602082019050919050565b5f6020820190508181035f83015261487181614838565b9050919050565b7f416c726561647920766f746564000000000000000000000000000000000000005f82015250565b5f6148ac600d836139d5565b91506148b782614878565b602082019050919050565b5f6020820190508181035f8301526148d9816148a0565b9050919050565b7f416c7265616479206578656375746564000000000000000000000000000000005f82015250565b5f6149146010836139d5565b915061491f826148e0565b602082019050919050565b5f6020820190508181035f83015261494181614908565b9050919050565b5f6149528261359c565b91507fffffffffffffffffffffffffffffffffffffffffffffffffffffffffffffffff82036149845761498361429e565b5b600182019050919050565b5f6149998261359c565b91506149a48361359c565b92508282026149b28161359c565b915082820484148315176149c9576149c861429e565b5b5092915050565b7f4e6f7468696e6720746f207769746864726177000000000000000000000000005f82015250565b5f614a046013836139d5565b9150614a0f826149d0565b602082019050919050565b5f6020820190508181035f830152614a31816149f8565b9050919050565b5f604082019050614a4b5f83018561390a565b614a58602083018461390a565b9392505050565b7f4e487b71000000000000000000000000000000000000000000000000000000005f52603260045260245ffd5b7f5a65726f20616d6f756e740000000000000000000000000000000000000000005f82015250565b5f614ac0600b836139d5565b9150614acb82614a8c565b602082019050919050565b5f6020820190508181035f830152614aed81614ab4565b9050919050565b7f4e6f7420617574686f72697a65640000000000000000000000000000000000005f82015250565b5f614b28600e836139d5565b9150614b3382614af4565b602082019050919050565b5f6020820190508181035f830152614b5581614b1c565b9050919050565b5f82905092915050565b614b708383614b5c565b67ffffffffffffffff811115614b8957614b88613eec565b5b614b938254614469565b614b9e8282856145ad565b5f601f831160018114614bcb575f8415614bb9578287013590505b614bc3858261461b565b865550614c2a565b601f198416614bd986614499565b5f5b82811015614c0057848901358255600182019150602085019450602081019050614bdb565b86831015614c1d5784890135614c19601f8916826145ff565b8355505b6001600288020188555050505b50505050505050565b5f604082019050614c465f830186613932565b8181036020830152614c59818486614705565b9050949350505050565b7f45786365656473207370656e64206c696d6974000000000000000000000000005f82015250565b5f614c976013836139d5565b9150614ca282614c63565b602082019050919050565b5f6020820190508181035f830152614cc481614c8b565b9050919050565b7f45786365656473206461696c79206361700000000000000000000000000000005f82015250565b5f614cff6011836139d5565b9150614d0a82614ccb565b602082019050919050565b5f6020820190508181035f830152614d2c81614cf3565b9050919050565b7f457863656564732063617465676f7279206275646765740000000000000000005f82015250565b5f614d676017836139d5565b9150614d7282614d33565b602082019050919050565b5f6020820190508181035f830152614d9481614d5b565b9050919050565b7f4e6f7420656e6f75676820617070726f76616c730000000000000000000000005f82015250565b5f614dcf6014836139d5565b9150614dda82614d9b565b602082019050919050565b5f6020820190508181035f830152614dfc81614dc3565b9050919050565b5f8154614e0f81614469565b614e1981866143f6565b9450600182165f8114614e335760018114614e4857614e7a565b60ff1983168652811515820286019350614e7a565b614e5185614499565b5f5b83811015614e7257815481890152600182019150602081019050614e53565b838801955050505b50505092915050565b5f614e8e8284614e03565b915081905092915050565b5f8154614ea581614469565b614eaf81866139d5565b9450600182165f8114614ec95760018114614edf57614f11565b60ff198316865281151560200286019350614f11565b614ee885614499565b5f5b83811015614f0957815481890152600182019150602081019050614eea565b808801955050505b50505092915050565b5f606082019050614f2d5f830186613932565b8181036020830152614f3f8185614e99565b90508181036040830152614f538184614e99565b905094935050505056fea2646970667358221220c3d64241f8e9a808f0dd944647e7feacca7a236d9e754e9a7e0369a3a6ce823664736f6c63430008180033","linkReferences":{}},"methodIdentifiers":{"castVote(uint256)":"3eb76b9c","categoryBudgets(uint256,string)":"e4163608","createTrip(address,address,uint256)":"7da3075f","dailySpending(uint256,uint256)":"3911ea71","deposit(uint256,uint256)":"e2bbb158","deposits(uint256,address)":"53a58de1","emergencyWithdraw(uint256)":"5312ea8e","executeVote(uint256)":"f98a4eca","getBalance(uint256)":"1e010439","getCategoryBudget(uint256,string)":"45d6c099","getDailySpending(uint256)":"0912a047","getMemberDeposit(uint256,address)":"c528f5d3","getMembers(uint256)":"c477ecab","getNanopaymentTotal(uint256)":"06c8924c","getSpends(uint256)":"5b12d2fb","getTrip(uint256)":"01011705","getVoteRequest(uint256)":"48d0969c","isMember(uint256,address)":"7d9e10f5","members(uint256,uint256)":"01fc20e2","nanopayment(uint256,address,uint256,string,string)":"00a2fafd","nanopaymentTotal(uint256)":"6d7d0833","nextTripId()":"8921a346","nextVoteId()":"e207d04d","requestVote(uint256,address,uint256,string,string,uint256)":"f19eef02","setCategoryBudget(uint256,string,uint256)":"0adb741c","setDailyCap(uint256,uint256)":"83e2d700","settle(uint256)":"8df82800","spend(uint256,address,uint256,string,string)":"f4e8f194","spends(uint256,uint256)":"3448be63","trips(uint256)":"f6824a7c","voteRequests(uint256)":"70ef09bd"},"id":32}